{
  "contractName": "Chessino",
  "abi": [
    {
      "inputs": [
        {
          "internalType": "address",
          "name": "_admin",
          "type": "address"
        },
        {
          "internalType": "address",
          "name": "_chnAddress",
          "type": "address"
        }
      ],
      "stateMutability": "nonpayable",
      "type": "constructor"
    },
    {
      "anonymous": false,
      "inputs": [
        {
          "indexed": false,
          "internalType": "uint256",
          "name": "totalWinners",
          "type": "uint256"
        },
        {
          "indexed": false,
          "internalType": "uint256",
          "name": "totalPayoutAmount",
          "type": "uint256"
        }
      ],
      "name": "PayoutDone",
      "type": "event"
    },
    {
      "anonymous": false,
      "inputs": [
        {
          "indexed": false,
          "internalType": "address",
          "name": "user",
          "type": "address"
        },
        {
          "indexed": false,
          "internalType": "uint256",
          "name": "amount",
          "type": "uint256"
        }
      ],
      "name": "StakeSuccessful",
      "type": "event"
    },
    {
      "anonymous": false,
      "inputs": [
        {
          "indexed": false,
          "internalType": "address",
          "name": "winner",
          "type": "address"
        },
        {
          "indexed": false,
          "internalType": "uint256",
          "name": "amount",
          "type": "uint256"
        }
      ],
      "name": "WinnerSet",
      "type": "event"
    },
    {
      "inputs": [],
      "name": "admin",
      "outputs": [
        {
          "internalType": "address",
          "name": "",
          "type": "address"
        }
      ],
      "stateMutability": "view",
      "type": "function",
      "constant": true
    },
    {
      "inputs": [],
      "name": "chn",
      "outputs": [
        {
          "internalType": "contract ICHN",
          "name": "",
          "type": "address"
        }
      ],
      "stateMutability": "view",
      "type": "function",
      "constant": true
    },
    {
      "inputs": [
        {
          "internalType": "uint256",
          "name": "",
          "type": "uint256"
        }
      ],
      "name": "stakersAddresses",
      "outputs": [
        {
          "internalType": "address",
          "name": "",
          "type": "address"
        }
      ],
      "stateMutability": "view",
      "type": "function",
      "constant": true
    },
    {
      "inputs": [
        {
          "internalType": "uint256",
          "name": "",
          "type": "uint256"
        }
      ],
      "name": "stakersBalances",
      "outputs": [
        {
          "internalType": "uint256",
          "name": "",
          "type": "uint256"
        }
      ],
      "stateMutability": "view",
      "type": "function",
      "constant": true
    },
    {
      "inputs": [
        {
          "internalType": "uint256",
          "name": "",
          "type": "uint256"
        }
      ],
      "name": "winnersAddresses",
      "outputs": [
        {
          "internalType": "address",
          "name": "",
          "type": "address"
        }
      ],
      "stateMutability": "view",
      "type": "function",
      "constant": true
    },
    {
      "inputs": [
        {
          "internalType": "uint256",
          "name": "",
          "type": "uint256"
        }
      ],
      "name": "winnersBalances",
      "outputs": [
        {
          "internalType": "uint256",
          "name": "",
          "type": "uint256"
        }
      ],
      "stateMutability": "view",
      "type": "function",
      "constant": true
    },
    {
      "inputs": [
        {
          "internalType": "address",
          "name": "_admin",
          "type": "address"
        }
      ],
      "name": "setNewAdmin",
      "outputs": [
        {
          "internalType": "bool",
          "name": "",
          "type": "bool"
        }
      ],
      "stateMutability": "nonpayable",
      "type": "function"
    },
    {
      "inputs": [
        {
          "internalType": "uint256",
          "name": "_amount",
          "type": "uint256"
        }
      ],
      "name": "makeStake",
      "outputs": [
        {
          "internalType": "bool",
          "name": "",
          "type": "bool"
        }
      ],
      "stateMutability": "nonpayable",
      "type": "function"
    },
    {
      "inputs": [
        {
          "internalType": "uint256",
          "name": "amount",
          "type": "uint256"
        }
      ],
      "name": "setWinners",
      "outputs": [],
      "stateMutability": "nonpayable",
      "type": "function"
    },
    {
      "inputs": [],
      "name": "payoutWinners",
      "outputs": [],
      "stateMutability": "nonpayable",
      "type": "function"
    },
    {
      "inputs": [],
      "name": "getPendingPayoutAmount",
      "outputs": [
        {
          "internalType": "uint256",
          "name": "",
          "type": "uint256"
        }
      ],
      "stateMutability": "view",
      "type": "function",
      "constant": true
    },
    {
      "inputs": [],
      "name": "getTotalStakes",
      "outputs": [
        {
          "internalType": "uint256",
          "name": "",
          "type": "uint256"
        }
      ],
      "stateMutability": "view",
      "type": "function",
      "constant": true
    },
    {
      "inputs": [],
      "name": "getWinnersDetails",
      "outputs": [
        {
          "internalType": "address[]",
          "name": "",
          "type": "address[]"
        },
        {
          "internalType": "uint256[]",
          "name": "",
          "type": "uint256[]"
        }
      ],
      "stateMutability": "view",
      "type": "function",
      "constant": true
    },
    {
      "inputs": [],
      "name": "getStakersDetails",
      "outputs": [
        {
          "internalType": "address[]",
          "name": "",
          "type": "address[]"
        },
        {
          "internalType": "uint256[]",
          "name": "",
          "type": "uint256[]"
        }
      ],
      "stateMutability": "view",
      "type": "function",
      "constant": true
    },
    {
      "inputs": [],
      "name": "getAdmin",
      "outputs": [
        {
          "internalType": "address",
          "name": "",
          "type": "address"
        }
      ],
      "stateMutability": "view",
      "type": "function",
      "constant": true
    },
    {
      "inputs": [
        {
          "internalType": "address[]",
          "name": "_array",
          "type": "address[]"
        },
        {
          "internalType": "address",
          "name": "_address",
          "type": "address"
        }
      ],
      "name": "checkAddressInArray",
      "outputs": [
        {
          "internalType": "bool",
          "name": "",
          "type": "bool"
        }
      ],
      "stateMutability": "pure",
      "type": "function",
      "constant": true
    }
  ],
  "bytecode": "0x60806040523480156200001157600080fd5b50604051620018193803806200181983398181016040528101906200003791906200012a565b806000806101000a81548173ffffffffffffffffffffffffffffffffffffffff021916908373ffffffffffffffffffffffffffffffffffffffff16021790555081600160006101000a81548173ffffffffffffffffffffffffffffffffffffffff021916908373ffffffffffffffffffffffffffffffffffffffff160217905550505062000171565b600080fd5b600073ffffffffffffffffffffffffffffffffffffffff82169050919050565b6000620000f282620000c5565b9050919050565b6200010481620000e5565b81146200011057600080fd5b50565b6000815190506200012481620000f9565b92915050565b60008060408385031215620001445762000143620000c0565b5b6000620001548582860162000113565b9250506020620001678582860162000113565b9150509250929050565b61169880620001816000396000f3fe608060405234801561001057600080fd5b50600436106101005760003560e01c80636e5d2efe116100975780639f7c94aa116100665780639f7c94aa146102e9578063ed9f83fd146102f3578063f851a44014610312578063fcbc0c241461033057610100565b80636e5d2efe1461024d5780636e9960c31461027d5780638eec99c81461029b57806395fd7566146102cb57610100565b80635d4d5aa1116100d35780635d4d5aa1146101b15780635df4ce9a146101cf57806368c33627146101ff5780636918cf201461021d57610100565b80633c4e2590146101055780633d42071c146101215780635cd2254d146101515780635d3d560214610181575b600080fd5b61011f600480360381019061011a9190610e77565b61034f565b005b61013b60048036038101906101369190610e77565b6104ec565b6040516101489190610ee5565b60405180910390f35b61016b60048036038101906101669190610e77565b61052b565b6040516101789190610ee5565b60405180910390f35b61019b60048036038101906101969190610e77565b61056a565b6040516101a89190610f0f565b60405180910390f35b6101b961058e565b6040516101c69190610f89565b60405180910390f35b6101e960048036038101906101e49190610e77565b6105b2565b6040516101f69190610f0f565b60405180910390f35b6102076105d6565b6040516102149190610f0f565b60405180910390f35b61023760048036038101906102329190610e77565b610634565b6040516102449190610fbf565b60405180910390f35b6102676004803603810190610262919061115f565b6107c8565b6040516102749190610fbf565b60405180910390f35b61028561084f565b6040516102929190610ee5565b60405180910390f35b6102b560048036038101906102b091906111bb565b610879565b6040516102c29190610fbf565b60405180910390f35b6102d361091f565b6040516102e09190610f0f565b60405180910390f35b6102f161097d565b005b6102fb610bd6565b604051610309929190611364565b60405180910390f35b61031a610cbf565b6040516103279190610ee5565b60405180910390f35b610338610ce5565b604051610346929190611364565b60405180910390f35b60006103e160048054806020026020016040519081016040528092919081815260200182805480156103d657602002820191906000526020600020905b8160009054906101000a900473ffffffffffffffffffffffffffffffffffffffff1673ffffffffffffffffffffffffffffffffffffffff168152602001906001019080831161038c575b5050505050336107c8565b905080610423576040517f08c379a000000000000000000000000000000000000000000000000000000000815260040161041a906113f8565b60405180910390fd5b6002339080600181540180825580915050600190039060005260206000200160009091909190916101000a81548173ffffffffffffffffffffffffffffffffffffffff021916908373ffffffffffffffffffffffffffffffffffffffff16021790555060038290806001815401808255809150506001900390600052602060002001600090919091909150557fb6088e2a296cab5c827841a47b9560a92ac83c084f2bc0add1cabf3745665b3833836040516104e0929190611418565b60405180910390a15050565b600481815481106104fc57600080fd5b906000526020600020016000915054906101000a900473ffffffffffffffffffffffffffffffffffffffff1681565b6002818154811061053b57600080fd5b906000526020600020016000915054906101000a900473ffffffffffffffffffffffffffffffffffffffff1681565b6003818154811061057a57600080fd5b906000526020600020016000915090505481565b60008054906101000a900473ffffffffffffffffffffffffffffffffffffffff1681565b600581815481106105c257600080fd5b906000526020600020016000915090505481565b6000806000905060005b60058054905081101561062c576005818154811061060157610600611441565b5b906000526020600020015482610617919061149f565b91508080610624906114f5565b9150506105e0565b508091505090565b60008060009054906101000a900473ffffffffffffffffffffffffffffffffffffffff1673ffffffffffffffffffffffffffffffffffffffff166323b872dd33600160009054906101000a900473ffffffffffffffffffffffffffffffffffffffff16856040518463ffffffff1660e01b81526004016106b69392919061153d565b6020604051808303816000875af11580156106d5573d6000803e3d6000fd5b505050506040513d601f19601f820116820180604052508101906106f991906115a0565b506004339080600181540180825580915050600190039060005260206000200160009091909190916101000a81548173ffffffffffffffffffffffffffffffffffffffff021916908373ffffffffffffffffffffffffffffffffffffffff16021790555060058290806001815401808255809150506001900390600052602060002001600090919091909150557fb6e7cd31c791fae5c986d5b24f97384a6ad8e474fa37e53ed080e1a010613a8b33836040516107b7929190611418565b60405180910390a160019050919050565b6000806000905060005b8451811015610844578373ffffffffffffffffffffffffffffffffffffffff1685828151811061080557610804611441565b5b602002602001015173ffffffffffffffffffffffffffffffffffffffff16036108315760019150610844565b808061083c906114f5565b9150506107d2565b508091505092915050565b6000600160009054906101000a900473ffffffffffffffffffffffffffffffffffffffff16905090565b6000600160009054906101000a900473ffffffffffffffffffffffffffffffffffffffff1673ffffffffffffffffffffffffffffffffffffffff163373ffffffffffffffffffffffffffffffffffffffff16146108d557600080fd5b81600160006101000a81548173ffffffffffffffffffffffffffffffffffffffff021916908373ffffffffffffffffffffffffffffffffffffffff16021790555060019050919050565b6000806000905060005b600380549050811015610975576003818154811061094a57610949611441565b5b906000526020600020015482610960919061149f565b9150808061096d906114f5565b915050610929565b508091505090565b600160009054906101000a900473ffffffffffffffffffffffffffffffffffffffff1673ffffffffffffffffffffffffffffffffffffffff163373ffffffffffffffffffffffffffffffffffffffff1614610a0d576040517f08c379a0000000000000000000000000000000000000000000000000000000008152600401610a0490611619565b60405180910390fd5b6000610a1761091f565b90506000600280549050905060005b81811015610b605760008054906101000a900473ffffffffffffffffffffffffffffffffffffffff1673ffffffffffffffffffffffffffffffffffffffff166323b872dd600160009054906101000a900473ffffffffffffffffffffffffffffffffffffffff1660028481548110610aa157610aa0611441565b5b9060005260206000200160009054906101000a900473ffffffffffffffffffffffffffffffffffffffff1660038581548110610ae057610adf611441565b5b90600052602060002001546040518463ffffffff1660e01b8152600401610b099392919061153d565b6020604051808303816000875af1158015610b28573d6000803e3d6000fd5b505050506040513d601f19601f82011682018060405250810190610b4c91906115a0565b508080610b58906114f5565b915050610a26565b5060026000610b6f9190610dce565b60036000610b7d9190610def565b60046000610b8b9190610dce565b60056000610b999190610def565b7f7b6082776487ae40408afc7644f073c9bd08e31639cbeacab219ab6b631c6df68183604051610bca929190611639565b60405180910390a15050565b6060806002600381805480602002602001604051908101604052809291908181526020018280548015610c5e57602002820191906000526020600020905b8160009054906101000a900473ffffffffffffffffffffffffffffffffffffffff1673ffffffffffffffffffffffffffffffffffffffff1681526020019060010190808311610c14575b5050505050915080805480602002602001604051908101604052809291908181526020018280548015610cb057602002820191906000526020600020905b815481526020019060010190808311610c9c575b50505050509050915091509091565b600160009054906101000a900473ffffffffffffffffffffffffffffffffffffffff1681565b6060806004600581805480602002602001604051908101604052809291908181526020018280548015610d6d57602002820191906000526020600020905b8160009054906101000a900473ffffffffffffffffffffffffffffffffffffffff1673ffffffffffffffffffffffffffffffffffffffff1681526020019060010190808311610d23575b5050505050915080805480602002602001604051908101604052809291908181526020018280548015610dbf57602002820191906000526020600020905b815481526020019060010190808311610dab575b50505050509050915091509091565b5080546000825590600052602060002090810190610dec9190610e10565b50565b5080546000825590600052602060002090810190610e0d9190610e10565b50565b5b80821115610e29576000816000905550600101610e11565b5090565b6000604051905090565b600080fd5b600080fd5b6000819050919050565b610e5481610e41565b8114610e5f57600080fd5b50565b600081359050610e7181610e4b565b92915050565b600060208284031215610e8d57610e8c610e37565b5b6000610e9b84828501610e62565b91505092915050565b600073ffffffffffffffffffffffffffffffffffffffff82169050919050565b6000610ecf82610ea4565b9050919050565b610edf81610ec4565b82525050565b6000602082019050610efa6000830184610ed6565b92915050565b610f0981610e41565b82525050565b6000602082019050610f246000830184610f00565b92915050565b6000819050919050565b6000610f4f610f4a610f4584610ea4565b610f2a565b610ea4565b9050919050565b6000610f6182610f34565b9050919050565b6000610f7382610f56565b9050919050565b610f8381610f68565b82525050565b6000602082019050610f9e6000830184610f7a565b92915050565b60008115159050919050565b610fb981610fa4565b82525050565b6000602082019050610fd46000830184610fb0565b92915050565b600080fd5b6000601f19601f8301169050919050565b7f4e487b7100000000000000000000000000000000000000000000000000000000600052604160045260246000fd5b61102882610fdf565b810181811067ffffffffffffffff8211171561104757611046610ff0565b5b80604052505050565b600061105a610e2d565b9050611066828261101f565b919050565b600067ffffffffffffffff82111561108657611085610ff0565b5b602082029050602081019050919050565b600080fd5b6110a581610ec4565b81146110b057600080fd5b50565b6000813590506110c28161109c565b92915050565b60006110db6110d68461106b565b611050565b905080838252602082019050602084028301858111156110fe576110fd611097565b5b835b81811015611127578061111388826110b3565b845260208401935050602081019050611100565b5050509392505050565b600082601f83011261114657611145610fda565b5b81356111568482602086016110c8565b91505092915050565b6000806040838503121561117657611175610e37565b5b600083013567ffffffffffffffff81111561119457611193610e3c565b5b6111a085828601611131565b92505060206111b1858286016110b3565b9150509250929050565b6000602082840312156111d1576111d0610e37565b5b60006111df848285016110b3565b91505092915050565b600081519050919050565b600082825260208201905092915050565b6000819050602082019050919050565b61121d81610ec4565b82525050565b600061122f8383611214565b60208301905092915050565b6000602082019050919050565b6000611253826111e8565b61125d81856111f3565b935061126883611204565b8060005b838110156112995781516112808882611223565b975061128b8361123b565b92505060018101905061126c565b5085935050505092915050565b600081519050919050565b600082825260208201905092915050565b6000819050602082019050919050565b6112db81610e41565b82525050565b60006112ed83836112d2565b60208301905092915050565b6000602082019050919050565b6000611311826112a6565b61131b81856112b1565b9350611326836112c2565b8060005b8381101561135757815161133e88826112e1565b9750611349836112f9565b92505060018101905061132a565b5085935050505092915050565b6000604082019050818103600083015261137e8185611248565b905081810360208301526113928184611306565b90509392505050565b600082825260208201905092915050565b7f4f6e6c79207374616b6572732063616e2077696e000000000000000000000000600082015250565b60006113e260148361139b565b91506113ed826113ac565b602082019050919050565b60006020820190508181036000830152611411816113d5565b9050919050565b600060408201905061142d6000830185610ed6565b61143a6020830184610f00565b9392505050565b7f4e487b7100000000000000000000000000000000000000000000000000000000600052603260045260246000fd5b7f4e487b7100000000000000000000000000000000000000000000000000000000600052601160045260246000fd5b60006114aa82610e41565b91506114b583610e41565b9250827fffffffffffffffffffffffffffffffffffffffffffffffffffffffffffffffff038211156114ea576114e9611470565b5b828201905092915050565b600061150082610e41565b91507fffffffffffffffffffffffffffffffffffffffffffffffffffffffffffffffff820361153257611531611470565b5b600182019050919050565b60006060820190506115526000830186610ed6565b61155f6020830185610ed6565b61156c6040830184610f00565b949350505050565b61157d81610fa4565b811461158857600080fd5b50565b60008151905061159a81611574565b92915050565b6000602082840312156115b6576115b5610e37565b5b60006115c48482850161158b565b91505092915050565b7f6f6e6c792061646d696e2063616e207061792077696e6e657273000000000000600082015250565b6000611603601a8361139b565b915061160e826115cd565b602082019050919050565b60006020820190508181036000830152611632816115f6565b9050919050565b600060408201905061164e6000830185610f00565b61165b6020830184610f00565b939250505056fea26469706673582212203f0f19862f2e9290800552a2d65b92e5814a53d3f5698f01ebbdf4b94ebba6c864736f6c634300080f0033",
  "immutableReferences": {},
  "source": "//SPDX-License-Identifier: UNLICENCED\r\npragma solidity ^0.8.0;\r\n\r\nimport \"./ICHN.sol\";\r\n\r\ncontract Chessino {\r\n\r\n    ICHN public chn;\r\n    address public admin;\r\n\r\n    address [] public winnersAddresses;\r\n    uint256[] public winnersBalances;\r\n    address [] public stakersAddresses;\r\n    uint256[] public stakersBalances;\r\n\r\n    event StakeSuccessful(address user,  uint amount);\r\n    event PayoutDone(uint256 totalWinners, uint256 totalPayoutAmount);\r\n    event WinnerSet(address winner, uint256 amount);\r\n\r\n    constructor (address _admin, address _chnAddress) {\r\n        chn = ICHN(_chnAddress);\r\n        admin = _admin;\r\n    }\r\n\r\n    function setNewAdmin(address _admin) public returns(bool){\r\n        require(msg.sender == admin);\r\n        admin = _admin;\r\n        return true;\r\n    }\r\n\r\n    function makeStake(uint _amount) public returns(bool){\r\n        chn.transferFrom(msg.sender, admin, _amount);\r\n        stakersAddresses.push(msg.sender);\r\n        stakersBalances.push(_amount);\r\n        emit StakeSuccessful(msg.sender, _amount);\r\n        return true;\r\n    }\r\n\r\n\r\n    function setWinners(uint256 amount) public {\r\n        bool hasStaked = checkAddressInArray(stakersAddresses, msg.sender);\r\n        require(hasStaked, \"Only stakers can win\");\r\n        winnersAddresses.push(msg.sender);\r\n        winnersBalances.push(amount);\r\n        emit WinnerSet(msg.sender, amount);\r\n    }\r\n\r\n    function payoutWinners() public {\r\n        require(msg.sender == admin, \"only admin can pay winners\");\r\n        uint256 totalPayoutAmount = getPendingPayoutAmount();\r\n        uint256 totalWinners = winnersAddresses.length;\r\n        for (uint i=0; i < totalWinners; i++){\r\n            chn.transferFrom(admin, winnersAddresses[i], winnersBalances[i]);\r\n        }\r\n\r\n        delete winnersAddresses;\r\n        delete winnersBalances;\r\n        delete stakersAddresses;\r\n        delete stakersBalances;\r\n        emit PayoutDone(totalWinners, totalPayoutAmount);\r\n        \r\n    }\r\n\r\n    function getPendingPayoutAmount() public view returns(uint256){\r\n        uint256 totalPayoutAmount = 0;\r\n        for (uint i=0; i < winnersBalances.length; i++){\r\n            totalPayoutAmount += winnersBalances[i];\r\n        }\r\n        return totalPayoutAmount;\r\n    }\r\n    function getTotalStakes() public view returns(uint256){\r\n        uint256 totalStakes = 0;\r\n        for (uint i=0; i < stakersBalances.length; i++){\r\n            totalStakes += stakersBalances[i];\r\n        }\r\n        return totalStakes;\r\n    }\r\n\r\n    function getWinnersDetails() public view returns( address[] memory, uint256[] memory ){       \r\n        return (winnersAddresses, winnersBalances);\r\n    }\r\n    function getStakersDetails() public view returns( address[] memory, uint256[] memory ){       \r\n        return (stakersAddresses, stakersBalances);\r\n    }\r\n    function getAdmin() public view returns( address){       \r\n        return admin;\r\n    }\r\n    function checkAddressInArray(address[] memory _array, address _address ) public pure returns(bool){\r\n        bool isIn = false;\r\n\r\n        for(uint i=0; i<_array.length; i++){\r\n            if(_array[i] == _address){\r\n                isIn = true;\r\n                break;\r\n            }\r\n        }\r\n        return isIn;\r\n    }\r\n}",
  "sourcePath": "C:\\Users\\boss\\Desktop\\polygon-chess-game\\smart-contracts\\contracts\\Chessino.sol",
  "compiler": {
    "name": "solc",
    "version": "0.8.15+commit.e14f2714.Emscripten.clang"
  },
  "schemaVersion": "3.4.8",
  "updatedAt": "2022-11-30T17:27:15.343Z",
  "networkType": "ethereum",
  "devdoc": {
    "kind": "dev",
    "methods": {},
    "version": 1
  },
  "userdoc": {
    "kind": "user",
    "methods": {},
    "version": 1
  }
}