{
  "contractName": "PaymentProcessor",
  "abi": [
    {
      "inputs": [
        {
          "internalType": "address",
          "name": "_admin",
          "type": "address"
        },
        {
          "internalType": "address",
          "name": "_chnAddress",
          "type": "address"
        }
      ],
      "stateMutability": "nonpayable",
      "type": "constructor"
    },
    {
      "anonymous": false,
      "inputs": [
        {
          "indexed": false,
          "internalType": "uint256",
          "name": "totalWinners",
          "type": "uint256"
        },
        {
          "indexed": false,
          "internalType": "uint256",
          "name": "totalPayoutAmount",
          "type": "uint256"
        }
      ],
      "name": "PayoutDone",
      "type": "event"
    },
    {
      "anonymous": false,
      "inputs": [
        {
          "indexed": false,
          "internalType": "address",
          "name": "user",
          "type": "address"
        },
        {
          "indexed": false,
          "internalType": "uint256",
          "name": "amount",
          "type": "uint256"
        }
      ],
      "name": "StakeSuccessful",
      "type": "event"
    },
    {
      "inputs": [],
      "name": "admin",
      "outputs": [
        {
          "internalType": "address",
          "name": "",
          "type": "address"
        }
      ],
      "stateMutability": "view",
      "type": "function"
    },
    {
      "inputs": [],
      "name": "chn",
      "outputs": [
        {
          "internalType": "contract ICHN",
          "name": "",
          "type": "address"
        }
      ],
      "stateMutability": "view",
      "type": "function"
    },
    {
      "inputs": [
        {
          "internalType": "address",
          "name": "",
          "type": "address"
        }
      ],
      "name": "stakersMapping",
      "outputs": [
        {
          "internalType": "uint256",
          "name": "",
          "type": "uint256"
        }
      ],
      "stateMutability": "view",
      "type": "function"
    },
    {
      "inputs": [
        {
          "internalType": "uint256",
          "name": "",
          "type": "uint256"
        }
      ],
      "name": "winnersAddresses",
      "outputs": [
        {
          "internalType": "address",
          "name": "",
          "type": "address"
        }
      ],
      "stateMutability": "view",
      "type": "function"
    },
    {
      "inputs": [
        {
          "internalType": "address",
          "name": "",
          "type": "address"
        }
      ],
      "name": "winnersMapping",
      "outputs": [
        {
          "internalType": "uint256",
          "name": "",
          "type": "uint256"
        }
      ],
      "stateMutability": "view",
      "type": "function"
    },
    {
      "inputs": [
        {
          "internalType": "address",
          "name": "_admin",
          "type": "address"
        }
      ],
      "name": "setNewMerchant",
      "outputs": [
        {
          "internalType": "bool",
          "name": "",
          "type": "bool"
        }
      ],
      "stateMutability": "nonpayable",
      "type": "function"
    },
    {
      "inputs": [
        {
          "internalType": "uint256",
          "name": "_amount",
          "type": "uint256"
        }
      ],
      "name": "makeStake",
      "outputs": [
        {
          "internalType": "bool",
          "name": "",
          "type": "bool"
        }
      ],
      "stateMutability": "nonpayable",
      "type": "function"
    },
    {
      "inputs": [
        {
          "internalType": "uint256",
          "name": "amount",
          "type": "uint256"
        }
      ],
      "name": "setWinners",
      "outputs": [],
      "stateMutability": "nonpayable",
      "type": "function"
    },
    {
      "inputs": [],
      "name": "payoutWinners",
      "outputs": [],
      "stateMutability": "nonpayable",
      "type": "function"
    },
    {
      "inputs": [],
      "name": "getPendingPayoutAmount",
      "outputs": [
        {
          "internalType": "uint256",
          "name": "",
          "type": "uint256"
        }
      ],
      "stateMutability": "view",
      "type": "function"
    }
  ],
  "bytecode": "0x60806040523480156200001157600080fd5b506040516200114b3803806200114b83398181016040528101906200003791906200012a565b806000806101000a81548173ffffffffffffffffffffffffffffffffffffffff021916908373ffffffffffffffffffffffffffffffffffffffff16021790555081600160006101000a81548173ffffffffffffffffffffffffffffffffffffffff021916908373ffffffffffffffffffffffffffffffffffffffff160217905550505062000171565b600080fd5b600073ffffffffffffffffffffffffffffffffffffffff82169050919050565b6000620000f282620000c5565b9050919050565b6200010481620000e5565b81146200011057600080fd5b50565b6000815190506200012481620000f9565b92915050565b60008060408385031215620001445762000143620000c0565b5b6000620001548582860162000113565b9250506020620001678582860162000113565b9150509250929050565b610fca80620001816000396000f3fe608060405234801561001057600080fd5b506004361061009e5760003560e01c80636918cf20116100665780636918cf201461016d57806395fd75661461019d5780639f7c94aa146101bb578063c5c3ede7146101c5578063f851a440146101f55761009e565b806329f5d95b146100a35780633c4e2590146100d35780633e2ec48c146100ef5780635cd2254d1461011f5780635d4d5aa11461014f575b600080fd5b6100bd60048036038101906100b89190610ba5565b610213565b6040516100ca9190610bed565b60405180910390f35b6100ed60048036038101906100e89190610c3e565b6102b9565b005b61010960048036038101906101049190610ba5565b6103f4565b6040516101169190610c7a565b60405180910390f35b61013960048036038101906101349190610c3e565b61040c565b6040516101469190610ca4565b60405180910390f35b61015761044b565b6040516101649190610d1e565b60405180910390f35b61018760048036038101906101829190610c3e565b61046f565b6040516101949190610bed565b60405180910390f35b6101a561065a565b6040516101b29190610c7a565b60405180910390f35b6101c3610717565b005b6101df60048036038101906101da9190610ba5565b610ac6565b6040516101ec9190610c7a565b60405180910390f35b6101fd610ade565b60405161020a9190610ca4565b60405180910390f35b6000600160009054906101000a900473ffffffffffffffffffffffffffffffffffffffff1673ffffffffffffffffffffffffffffffffffffffff163373ffffffffffffffffffffffffffffffffffffffff161461026f57600080fd5b81600160006101000a81548173ffffffffffffffffffffffffffffffffffffffff021916908373ffffffffffffffffffffffffffffffffffffffff16021790555060019050919050565b6000600460003373ffffffffffffffffffffffffffffffffffffffff1673ffffffffffffffffffffffffffffffffffffffff168152602001908152602001600020541161030557600080fd5b80600360003373ffffffffffffffffffffffffffffffffffffffff1673ffffffffffffffffffffffffffffffffffffffff168152602001908152602001600020819055506002339080600181540180825580915050600190039060005260206000200160009091909190916101000a81548173ffffffffffffffffffffffffffffffffffffffff021916908373ffffffffffffffffffffffffffffffffffffffff1602179055506000600460003373ffffffffffffffffffffffffffffffffffffffff1673ffffffffffffffffffffffffffffffffffffffff1681526020019081526020016000208190555050565b60036020528060005260406000206000915090505481565b6002818154811061041c57600080fd5b906000526020600020016000915054906101000a900473ffffffffffffffffffffffffffffffffffffffff1681565b60008054906101000a900473ffffffffffffffffffffffffffffffffffffffff1681565b60008060009054906101000a900473ffffffffffffffffffffffffffffffffffffffff1673ffffffffffffffffffffffffffffffffffffffff1663095ea7b330846040518363ffffffff1660e01b81526004016104cd929190610d39565b6020604051808303816000875af11580156104ec573d6000803e3d6000fd5b505050506040513d601f19601f820116820180604052508101906105109190610d8e565b5060008054906101000a900473ffffffffffffffffffffffffffffffffffffffff1673ffffffffffffffffffffffffffffffffffffffff166323b872dd33600160009054906101000a900473ffffffffffffffffffffffffffffffffffffffff16856040518463ffffffff1660e01b815260040161059093929190610dbb565b6020604051808303816000875af11580156105af573d6000803e3d6000fd5b505050506040513d601f19601f820116820180604052508101906105d39190610d8e565b5081600460003373ffffffffffffffffffffffffffffffffffffffff1673ffffffffffffffffffffffffffffffffffffffff168152602001908152602001600020819055507fb6e7cd31c791fae5c986d5b24f97384a6ad8e474fa37e53ed080e1a010613a8b3383604051610649929190610d39565b60405180910390a160019050919050565b6000806000905060005b60028054905081101561070f57600360006002838154811061068957610688610df2565b5b9060005260206000200160009054906101000a900473ffffffffffffffffffffffffffffffffffffffff1673ffffffffffffffffffffffffffffffffffffffff1673ffffffffffffffffffffffffffffffffffffffff16815260200190815260200160002054826106fa9190610e50565b9150808061070790610ea6565b915050610664565b508091505090565b600160009054906101000a900473ffffffffffffffffffffffffffffffffffffffff1673ffffffffffffffffffffffffffffffffffffffff163373ffffffffffffffffffffffffffffffffffffffff16146107a7576040517f08c379a000000000000000000000000000000000000000000000000000000000815260040161079e90610f4b565b60405180910390fd5b60006107b161065a565b905060008054906101000a900473ffffffffffffffffffffffffffffffffffffffff1673ffffffffffffffffffffffffffffffffffffffff1663095ea7b330836040518363ffffffff1660e01b815260040161080e929190610d39565b6020604051808303816000875af115801561082d573d6000803e3d6000fd5b505050506040513d601f19601f820116820180604052508101906108519190610d8e565b5060005b600280549050811015610a765760008054906101000a900473ffffffffffffffffffffffffffffffffffffffff1673ffffffffffffffffffffffffffffffffffffffff166323b872dd600160009054906101000a900473ffffffffffffffffffffffffffffffffffffffff16600284815481106108d5576108d4610df2565b5b9060005260206000200160009054906101000a900473ffffffffffffffffffffffffffffffffffffffff16600360006002878154811061091857610917610df2565b5b9060005260206000200160009054906101000a900473ffffffffffffffffffffffffffffffffffffffff1673ffffffffffffffffffffffffffffffffffffffff1673ffffffffffffffffffffffffffffffffffffffff168152602001908152602001600020546040518463ffffffff1660e01b815260040161099c93929190610dbb565b6020604051808303816000875af11580156109bb573d6000803e3d6000fd5b505050506040513d601f19601f820116820180604052508101906109df9190610d8e565b50600060036000600284815481106109fa576109f9610df2565b5b9060005260206000200160009054906101000a900473ffffffffffffffffffffffffffffffffffffffff1673ffffffffffffffffffffffffffffffffffffffff1673ffffffffffffffffffffffffffffffffffffffff168152602001908152602001600020819055508080610a6e90610ea6565b915050610855565b5060026000610a859190610b04565b7f7b6082776487ae40408afc7644f073c9bd08e31639cbeacab219ab6b631c6df660028054905082604051610abb929190610f6b565b60405180910390a150565b60046020528060005260406000206000915090505481565b600160009054906101000a900473ffffffffffffffffffffffffffffffffffffffff1681565b5080546000825590600052602060002090810190610b229190610b25565b50565b5b80821115610b3e576000816000905550600101610b26565b5090565b600080fd5b600073ffffffffffffffffffffffffffffffffffffffff82169050919050565b6000610b7282610b47565b9050919050565b610b8281610b67565b8114610b8d57600080fd5b50565b600081359050610b9f81610b79565b92915050565b600060208284031215610bbb57610bba610b42565b5b6000610bc984828501610b90565b91505092915050565b60008115159050919050565b610be781610bd2565b82525050565b6000602082019050610c026000830184610bde565b92915050565b6000819050919050565b610c1b81610c08565b8114610c2657600080fd5b50565b600081359050610c3881610c12565b92915050565b600060208284031215610c5457610c53610b42565b5b6000610c6284828501610c29565b91505092915050565b610c7481610c08565b82525050565b6000602082019050610c8f6000830184610c6b565b92915050565b610c9e81610b67565b82525050565b6000602082019050610cb96000830184610c95565b92915050565b6000819050919050565b6000610ce4610cdf610cda84610b47565b610cbf565b610b47565b9050919050565b6000610cf682610cc9565b9050919050565b6000610d0882610ceb565b9050919050565b610d1881610cfd565b82525050565b6000602082019050610d336000830184610d0f565b92915050565b6000604082019050610d4e6000830185610c95565b610d5b6020830184610c6b565b9392505050565b610d6b81610bd2565b8114610d7657600080fd5b50565b600081519050610d8881610d62565b92915050565b600060208284031215610da457610da3610b42565b5b6000610db284828501610d79565b91505092915050565b6000606082019050610dd06000830186610c95565b610ddd6020830185610c95565b610dea6040830184610c6b565b949350505050565b7f4e487b7100000000000000000000000000000000000000000000000000000000600052603260045260246000fd5b7f4e487b7100000000000000000000000000000000000000000000000000000000600052601160045260246000fd5b6000610e5b82610c08565b9150610e6683610c08565b9250827fffffffffffffffffffffffffffffffffffffffffffffffffffffffffffffffff03821115610e9b57610e9a610e21565b5b828201905092915050565b6000610eb182610c08565b91507fffffffffffffffffffffffffffffffffffffffffffffffffffffffffffffffff8203610ee357610ee2610e21565b5b600182019050919050565b600082825260208201905092915050565b7f6f6e6c792061646d696e2063616e207061792077696e6e657273000000000000600082015250565b6000610f35601a83610eee565b9150610f4082610eff565b602082019050919050565b60006020820190508181036000830152610f6481610f28565b9050919050565b6000604082019050610f806000830185610c6b565b610f8d6020830184610c6b565b939250505056fea2646970667358221220ae07023696e493390673dee76fca6b97236ce9203a203918a7368b9bceb6372764736f6c634300080f0033",
  "immutableReferences": {},
  "source": "//SPDX-License-Identifier: UNLICENCED\r\npragma solidity ^0.8.0;\r\n\r\nimport \"./ICHN.sol\";\r\n\r\ncontract PaymentProcessor {\r\n\r\n    ICHN public chn;\r\n    address public admin;\r\n\r\n    address [] public winnersAddresses;\r\n    mapping (address => uint256) public winnersMapping;\r\n    mapping (address => uint256) public stakersMapping;\r\n\r\n    event StakeSuccessful(address user,  uint amount);\r\n    event PayoutDone(uint256 totalWinners, uint256 totalPayoutAmount);\r\n\r\n    constructor (address _admin, address _chnAddress) {\r\n        chn = ICHN(_chnAddress);\r\n        admin = _admin;\r\n    }\r\n\r\n    function setNewMerchant(address _admin) public returns(bool){\r\n        require(msg.sender == admin);\r\n        admin = _admin;\r\n        return true;\r\n    }\r\n\r\n    function makeStake(uint _amount) public returns(bool){\r\n        chn.approve(address(this), _amount);\r\n        chn.transferFrom(msg.sender, admin, _amount);\r\n        stakersMapping[msg.sender] = _amount;\r\n        emit StakeSuccessful(msg.sender, _amount);\r\n        return true;\r\n    }\r\n\r\n\r\n    function setWinners(uint256 amount) public {\r\n        require(stakersMapping[msg.sender] > 0);\r\n        winnersMapping[msg.sender] = amount;\r\n        winnersAddresses.push(msg.sender);\r\n        stakersMapping[msg.sender] = 0;\r\n    }\r\n\r\n    function payoutWinners() public {\r\n        require(msg.sender == admin, \"only admin can pay winners\");\r\n        uint256 totalPayoutAmount = getPendingPayoutAmount();\r\n        chn.approve(address(this), totalPayoutAmount);\r\n        for (uint i=0; i < winnersAddresses.length; i++){\r\n            chn.transferFrom(admin, winnersAddresses[i], winnersMapping[winnersAddresses[i]]);\r\n            winnersMapping[winnersAddresses[i]] = 0;\r\n        }\r\n        delete winnersAddresses;\r\n        emit PayoutDone(winnersAddresses.length, totalPayoutAmount);\r\n        \r\n    }\r\n\r\n    function getPendingPayoutAmount() public view returns(uint256){\r\n        uint256 totalPayoutAmount = 0;\r\n        for (uint i=0; i < winnersAddresses.length; i++){\r\n            totalPayoutAmount += winnersMapping[winnersAddresses[i]];\r\n        }\r\n        return totalPayoutAmount;\r\n    }\r\n\r\n}",
  "sourcePath": "C:\\Users\\boss\\Desktop\\polygon-chess-game\\smart-contracts\\contracts\\Chessino.sol",
  "compiler": {
    "name": "solc",
    "version": "0.8.15+commit.e14f2714.Emscripten.clang"
  },
  "schemaVersion": "3.4.8",
  "updatedAt": "2022-11-25T11:45:07.190Z",
  "devdoc": {
    "kind": "dev",
    "methods": {},
    "version": 1
  },
  "userdoc": {
    "kind": "user",
    "methods": {},
    "version": 1
  }
}